:100000000C94AB010C94C8010C94C8010C94C80169
:100010000C9472040C94C8010C94C8010C94C8018F
:100020000C94C8010C94C8010C94C8010C94C8012C
:100030000C94C8010C94C8010C94C8010C94C8011C
:100040000C94C8010C94C8010C9462040C94C8016F
:100050000C94C8010C9482060C94C8010C94C8013D
:100060000C94C8010C94C80148065106510651066B
:100070003E06510627065106510651062A0651062C
:1000800051065106510651063406510651065106D5
:1000900051065106510651065106510651065106A8
:1000A00051065106510651064D065106510651069C
:1000B0004306510651065106510651062F065106B8
:1000C0005106510651065106390600000000000095
:1000D0000000002F000000000700070000147F143C
:1000E0007F1400242A7F2A1200626408132300363A
:1000F0004955225000000503000000001C22410069
:10010000000041221C000014083E08140008083EAC
:100110000808000000A060000008080808080000A7
:1001200060600000002010080402003E5149453E76
:100130000000427F40000042615149460021414594
:100140004B31001814127F10002745454539003CFB
:100150004A494930000171090503003649494936C9
:1001600000064949291E00003636000000005636B8
:10017000000000081422410000141414141400009C
:100180004122140800020151090600324959513E2A
:10019000007C1211127C007F49494936003E4141E2
:1001A0004122007F4141221C007F49494941007F93
:1001B00009090901003E4149497A007F0808087F82
:1001C0000000417F4100002040413F01007F0814B2
:1001D0002241007F40404040007F020C027F007FB0
:1001E0000408107F003E4141413E007F0909090695
:1001F000003E4151215E007F0919294600464949C8
:1002000049310001017F0101003F4040403F001F94
:100210002040201F003F4038403F00631408146313
:1002200000070870080700615149454300007F41FD
:10023000410000552A552A55000041417F00000425
:10024000020102040040404040400000010204005E
:10025000002054545478007F4844443800384444C3
:10026000442000384444487F00385454541800084F
:100270007E0901020018A4A4A47C007F080404786D
:100280000000447D4000004080847D00007F1028F5
:1002900044000000417F4000007C04180478007C8A
:1002A0000804047800384444443800FC242424180A
:1002B0000018242418FC007C080404080048545446
:1002C000542000043F444020003C4040207C001C5F
:1002D0002040201C003C4030403C00442810284472
:1002E000001CA0A0A07C004464544C44000008778B
:1002F0004100000000630000000041770800000892
:1003000004080804003A4040207A003D4040403D47
:10031000002154545479007D1211127D0039444457
:100320004439003D4242423D000205020000007E89
:1003300001495573007C1010081CAE2000B0C800A5
:100340001040813FA1A6A83FA4D300D5F0D922DA5E
:1003500012DB208D140011241FBECFEFD8E0DEBFCA
:10036000CDBF11E0A0E0B1E0EEE7F4E102C00590FE
:100370000D92A831B107D9F725E0A8E1B1E001C09D
:100380001D92AD33B207E1F70E9479050C943D0A46
:100390000C9400001092B90088E48093B80084E0C7
:1003A0008093BC00089594EA9093BC00ECEBF0E0DD
:1003B00090819923ECF78093BB0084E88093BC0084
:1003C000ECEBF0E080818823ECF7089584E98093DA
:1003D000BC0008958093BB0084E88093BC00ECEBE4
:1003E000F0E080818823ECF7089584EC8093BC00D2
:1003F00080E491E0ECEBF0E009C0019739F48091E2
:100400001B05886080931B0580E0089520812223CE
:10041000A4F78091BB00089584E88093BC00ECEBC6
:10042000F0E080818823ECF78091BB000895EF9283
:10043000FF920F931F93CF93DF937C01162F88E7D2
:100440000E94D30180E00E94EA01112371F0E701CC
:100450001150012F10E00F5F1F4F0E0D1F1D8991CE
:100460000E94EA01C017D107D1F70E94E601DF918F
:10047000CF911F910F91FF90EF900895EF92FF920F
:100480000F931F93CF93DF937C018B0188E70E942A
:10049000D30180E40E94EA010115110549F0E7014A
:1004A0000E0D1F1D89910E94EA01C017D107D1F7D7
:1004B0000E94E601DF91CF911F910F91FF90EF9085
:1004C0000895CF93DF9300D000D01F92CDB7DEB751
:1004D000863138F5683028F5982F990F890F880FE5
:1004E000E8E1F5E0808361836055698391E29A8356
:1004F00092E0980F9F709B8390E00296807F9927EF
:1005000095958795959587959595879595958795D3
:10051000805F8C838FE78D8365E0CE0101960E941A
:1005200017020F900F900F900F900F90DF91CF91C7
:10053000089560E080E00E94610208950F931F9388
:10054000CF93DF9308E111E0C0E0D0E8F8018D2FF0
:1005500011928A95E9F76C2F80E00E94610260E8B1
:1005600070E0C8010E943E02CF5F00581F4FC830A4
:1005700069F70E949902DF91CF911F910F91089521
:100580001F93CF93DF93CDB7DEB76C970FB6F89478
:10059000DEBF0FBECDBF182F0E94CA01EAE3F3E011
:1005A000DE0111969E01245E3F4F84918D9331961A
:1005B000A217B307D1F71C8F6CE1CE0101960E9400
:1005C00017020E949E026C960FB6F894DEBF0FBE13
:1005D000CDBFDF91CF911F9108954F925F926F929F
:1005E0007F929F92AF92BF92CF92DF92EF92FF9253
:1005F0000F931F93CF93DF93CDB7DEB72C970FB632
:10060000F894DEBF0FBECDBF893001F118F48830F9
:1006100039F052C08A30E9F18D3009F447C04CC03E
:1006200008E115E0F8018081909100016181891B4A
:100630000E94610280E20E94ED02F80180819091A7
:1006400000016181891B0E946102EDC08091180543
:1006500090910001292F30E0220F331F220F331F0A
:10066000B901680F711D45E150E02A01421A530A91
:100670006415750540F4990F990F60911905890F5C
:100680000E946102D0C06091190585E10E9461025B
:10069000CAC080911905873008F0C5C0609100017B
:1006A000680F809118050E946102BDC06091190514
:1006B00080E00E946102B7C0909018050F2EF9E704
:1006C0005F2EF02D591408F4AEC0803208F4ABC090
:1006D000805290910001923009F085C09E012F5FF9
:1006E0003F4F790190E05C01AA0CBB1C8A0D9B1D59
:1006F000880F991FFC01E653FF4F5F013E01FDE0AB
:100700006F0E711C690101E010E0D60111961C9278
:100710001E92F501449121E030E080E090E0E42F6A
:10072000F0E0AF01082E02C0559547950A94E2F714
:1007300040FF1BC06D917C911197A801022E02C051
:10074000440F551F0A94E2F7642B752BAC01440F3C
:10075000551F280102C0440C551C4A95E2F7A2011E
:10076000462B572B11965C934E9301962E5F3F4F6D
:1007700088309105B1F622E0C20ED11C3FEFA31ADA
:10078000B30AC614D70409F0C0CFE92DF0E0909168
:100790001905892F90E001969695982F88279795AF
:1007A0008795DF01A80FB91FA85EBE4FE80FF91F9C
:1007B000AF0148565F4FF70180819181F2E0EF0E63
:1007C000F11C9C9311969C931197FA01808381836D
:1007D00012964E5F5F4FE614F70469F78CE0890DBF
:1007E0008093180520C02091190590E0FC01EE0FC0
:1007F000FF1FE80FF91FEE0FFF1FE653FF4FA92D54
:10080000B0E030E8239FA00DB11D1124A85EBE4FBB
:1008100086E094919D93815031968111FACF86E0C4
:10082000890D809318052C960FB6F894DEBF0FBE85
:10083000CDBFDF91CF911F910F91FF90EF90DF908F
:10084000CF90BF90AF909F907F906F905F904F90B0
:100850000895CF93DF93EC018881882331F02196AE
:100860000E94ED0289918111FBCFDF91CF91089514
:100870000F931F93CF9308E111E0C0E06C2F80E04D
:100880000E94610260E870E0C8010E943E02CF5FF2
:1008900000581F4FC83091F7CF911F910F910895C5
:1008A0001092C50087E68093C400E0ECF0E010826F
:1008B00088E98093C10086E08093C20080818064D3
:1008C000808308951F920F920FB60F9211248F9379
:1008D0008091C60080932C058F910F900FBE0F90D2
:1008E0001F9018951F920F920FB60F9211242F93FD
:1008F0003F934F935F936F937F938F939F93AF93A8
:10090000BF93CF93EF93FF93339B05C01092850065
:100910001092840021C08091840090918500909372
:100920002E0580932D05CFB7F89460912D05709119
:100930002E0580E090E00E9413092AE831EC4CE893
:100940005AE30E94CA096093280570932905809391
:100950002A0590932B05CFBFFF91EF91CF91BF91C7
:10096000AF919F918F917F916F915F914F913F9147
:100970002F910F900FBE0F901F9018958AB180662F
:100980008AB917BC18BC84B5806884BD84B5806200
:1009900084BD84B5836084BD85B5856085BD0895BB
:1009A0000E94BE048AB184698AB9209A08958FEFA3
:1009B00087B93B98439A4298E4E6F0E08081877FCC
:1009C00080831092850010928400E1E8F0E080813D
:1009D0008160808380818064808382E0809368006E
:1009E00088E080936C0008955A9A5C9888BD0895B9
:1009F0005A985C9A88BD08955F9A289887BD089593
:100A00005F98289A87BD0895CF93DF93181619062B
:100A100074F4EC01992324F4CC27DD27C81BD90BEF
:100A20008C2F0E94F4048C2F0E9400050DC0EC0155
:100A3000992324F4CC27DD27C81BD90B8C2F0E94C7
:100A4000F8048C2F0E94FC04DF91CF9108951816B2
:100A500019065CF49C01992324F422273327281BD0
:100A6000390B822F0E94FC0408959C01992324F4E1
:100A700022273327281B390B822F0E940005089557
:100A8000181619065CF49C01992324F422273327B5
:100A9000281B390B822F0E94F80408959C0199238A
:100AA00024F422273327281B390B822F0E94F404B9
:100AB0000895CF93DF93EC0199230CF4019695955B
:100AC00087950E942705CE010E944005DF91CF91B6
:100AD0000895CF93DF93EC010E942705CE01DD231B
:100AE0000CF40196959587950E944005DF91CF9172
:100AF0000895CF93DF93CDB7DEB72C970FB6F89458
:100B0000DEBF0FBECDBF0E9450040E94D0040E94E1
:100B1000D70478948FEF84B98FEA0E94C0020E94B4
:100B2000CA072FEF80E792E0215080409040E1F724
:100B300000C0000019821A821B821C821D821E8244
:100B40001F82188619861A861B861C8601E011E30F
:100B50000F2EF0E3BF2EF02D2FEF8DEE92E02150FF
:100B600080409040E1F700C00000AE01475F5F4F5A
:100B7000BE016B5F7F4FCE0101960E9427082AE0DD
:100B800037ED43EA5CE369817A818B819C810E9425
:100B9000A2086B017C0169837A838B839C832DEC93
:100BA0003CEC4CE45DE36D817E818F8198850E94F1
:100BB000A2082B013C016D837E838F8398872DECE7
:100BC0003CEC4CE45EE369857A858B859C850E94CC
:100BD000A10869877A878B879C872CEE31E548E3EB
:100BE0005EE3C701B6010E94C5091816F4F02CEEA9
:100BF00031E548E35EEBC701B6010E940E09882388
:100C0000A4F02CEE31E548E35EE3C301B2010E949B
:100C1000C509181654F02CEE31E548E35EEBC3012C
:100C2000B2010E940E09882314F400931A05109350
:100C30000201E0912C058E2F90E0FC01E254F109B5
:100C4000E133F10570F5EC5CFF4F0C94370AB0927C
:100C5000020127C08FE790E00E94690522C08FE360
:100C600090E00E9469051DC08FE790E00E94590541
:100C700018C08FE390E00E94590513C08FE790E001
:100C80000E9404050EC08FE390E00E94040509C095
:100C900081E89FEF0E94040504C081EC9FEF0E9451
:100CA000040560E080E00E94610283E091E00E9420
:100CB0002904809102010E94ED0289E091E00E94E6
:100CC000290462E080E00E9461028DE091E00E94D0
:100CD000290480912C050E94ED0289E091E00E9498
:100CE00029040E94380438CFECE7F0E09081907E30
:100CF0008F71892B80830895EAE7F0E0808180641A
:100D0000808308951F920F920FB60F9211242F9394
:100D10003F934F935F936F937F938F939F93AF9383
:100D2000BF93EF93FF9380910101863018F081E02B
:100D300080930101809101010E947406E0910101FC
:100D4000F0E08091780090917900EE0FFF1FE45E53
:100D5000FA4F91838083809101018F5F809301011D
:100D60000E947C06FF91EF91BF91AF919F918F916F
:100D70007F916F915F914F913F912F910F900FBE97
:100D80000F901F901895AF92BF92CF92DF92FF9273
:100D90000F931F93CF93DF936623B9F1C52FD42F01
:100DA000F62E182F80ED0E94D301812F0E94EA01B8
:100DB00083E08A95F1F7000081ED0E94D3010D2FA9
:100DC0001C2FCC24CA94CF0CD12CEFEFCE1ADE0A04
:100DD000C0E0D0E0AF2CB12CF1E0AF1AB108AC16F6
:100DE000BD0629F40E940C02F801808304C00E9411
:100DF000F501F801808321960F5F1F4FCC15DD05AB
:100E000071F7CF2D0E94E60101C0C0E08C2FDF9169
:100E1000CF911F910F91FF90DF90CF90BF90AF9037
:100E20000895AB0161E00E94C3060895EF92FF921E
:100E30000F931F93CF93DF936623D1F07A01162F80
:100E4000C82F80ED0E94D3018C2F0E94EA01E70198
:100E50006FEF610F062F10E00F5F1F4F0E0D1F1D6C
:100E600089910E94EA01C017D107D1F70E94E601DB
:100E7000DF91CF911F910F91FF90EF900895CF9345
:100E8000DF931F92CDB7DEB76983AE014F5F5F4F2F
:100E900061E00E9416070F90DF91CF910895EF92C5
:100EA000FF920F931F93CF93DF931F92CDB7DEB7BF
:100EB000442389F1F22E142F062FE82E1982BE0149
:100EC0006F5F7F4F0E941107882329F1402F50E068
:100ED000411B51094F5F5F4F81E090E002C0880FD6
:100EE000991F1A95E2F70197042E02C0880F991FE7
:100EF0000A94E2F72F2D30E002C0220F331F4A95EB
:100F0000E2F7682F6095998169238223682B6983B2
:100F10008E2D0E943F070F90DF91CF911F910F916F
:100F2000FF90EF900895FF920F931F93CF93DF935D
:100F30001F92CDB7DEB7182F062FF42EBE016F5FBC
:100F40007F4F0E941107FF2051F061E070E002C066
:100F5000660F771F0A95E2F78981682B0AC061E066
:100F600070E002C0660F771F0A95E2F760958981ED
:100F700068236983812F0E943F070F90DF91CF91F3
:100F80001F910F91FF90089540E066E08BE60E946C
:100F9000930708950E94CA0183E08A95F1F7000043
:100FA00087EA91E60197F1F700C000000E94C407AC
:100FB00083EC99E00197F1F700C0000021E043E0E5
:100FC00062E08BE60E944F0723E043E062E08AE1A3
:100FD0000E944F0764E089E10E943F0723E042E05E
:100FE00064E08BE10E944F0720E042E064E08CE186
:100FF0000E944F070895EF92FF920F931F93CF9394
:10100000DF937C018B01EA014FE255E066E08BE360
:101010000E94C306EFE2F5E02081818190E0922BEF
:10102000D7018D939C932281838190E0922BD801EC
:101030008D939C932481858190E0922B9983888362
:10104000DF91CF911F910F91FF90EF900895CF9274
:10105000DF92EF92FF920F931F93CF93DF9300D015
:1010600000D000D0CDB7DEB76C017B018A011A82B7
:1010700019821C821B821E821D82AE014B5F5F4F54
:10108000BE016D5F7F4FCE0101960E94FB07698113
:101090007A81072E000C880B990B0E9415092AE013
:1010A00037ED43EA5CE30E94A10820E030E040E82D
:1010B00058E30E94CA09F601608371838283938397
:1010C0006B817C81072E000C880B990B0E941509FF
:1010D0002DEC3CEC4CE45DE30E94A10820E030E004
:1010E00040E858E30E94CA09F70160837183828354
:1010F00093836D817E81072E000C880B990B0E94D3
:1011000015092DEC3CEC4CE45EE30E94A20820E0C3
:1011100030E040E858E30E94CA09F8016083718317
:101120008283938326960FB6F894DEBF0FBECDBFA1
:10113000DF91CF911F910F91FF90EF90DF90CF90B3
:1011400008955058BB27AA270E94B9080C948B0910
:101150000E947D0938F00E94840920F039F49F3FF5
:1011600019F426F40C947A090EF4E095E7FB0C943C
:101170007409E92F0E949C0958F3BA176207730794
:101180008407950720F079F4A6F50C94BE090EF4B7
:10119000E0950B2EBA2FA02D0B01B90190010C0187
:1011A000CA01A0011124FF27591B99F0593F50F49F
:1011B000503E68F11A16F040A22F232F342F4427F7
:1011C000585FF3CF469537952795A795F0405395EF
:1011D000C9F77EF41F16BA0B620B730B840BBAF0BF
:1011E0009150A1F0FF0FBB1F661F771F881FC2F72A
:1011F0000EC0BA0F621F731F841F48F4879577953E
:101200006795B795F7959E3F08F0B0CF9395880FF7
:1012100008F09927EE0F9795879508950E94500939
:1012200008F481E00895E89409C097FB3EF4909596
:101230008095709561957F4F8F4F9F4F9923A9F0AF
:10124000F92F96E9BB279395F6958795779567953E
:10125000B795F111F8CFFAF4BB0F11F460FF1BC082
:101260006F5F7F4F8F4F9F4F16C0882311F096E915
:1012700011C0772321F09EE8872F762F05C06623C3
:1012800071F096E8862F70E060E02AF09A95660F7C
:10129000771F881FDAF7880F9695879597F9089535
:1012A000990F0008550FAA0BE0E8FEEF1616170677
:1012B000E807F907C0F012161306E407F50798F0DF
:1012C000621B730B840B950B39F40A2661F0232BF8
:1012D000242B252B21F408950A2609F4A140A69574
:1012E0008FEF811D811D089597F99F6780E870E059
:1012F00060E008959FEF80EC089500240A9416168C
:10130000170618060906089500240A9412161306F3
:10131000140605060895092E0394000C11F4882381
:1013200052F0BB0F40F4BF2B11F460FF04C06F5F9D
:101330007F4F8F4F9F4F089557FD9058440F551F73
:1013400059F05F3F71F04795880F97FB991F61F047
:101350009F3F79F087950895121613061406551FBE
:10136000F2CF4695F1DF08C0161617061806991F2A
:10137000F1CF86957105610508940895E894BB271F
:1013800066277727CB0197F908950E94500908F442
:101390008FEF08950E94DD090C948B090E947D094E
:1013A00038F00E94840920F0952311F00C94740900
:1013B0000C947A0911240C94BF090E949C0970F3C3
:1013C000959FC1F3950F50E0551F629FF001729FEA
:1013D000BB27F00DB11D639FAA27F00DB11DAA1FF9
:1013E000649F6627B00DA11D661F829F2227B00D46
:1013F000A11D621F739FB00DA11D621F839FA00DD1
:10140000611D221F749F3327A00D611D231F849F20
:10141000600D211D822F762F6A2F11249F57504077
:101420009AF0F1F088234AF0EE0FFF1FBB1F661FF2
:10143000771F881F91505040A9F79E3F510580F0BB
:101440000C9474090C94BF095F3FE4F3983ED4F305
:10145000869577956795B795F795E7959F5FC1F75F
:10146000FE2B880F911D9695879597F90895EE0F9D
:0E147000FF1F0590F491E02D0994F894FFCF32
:10147E0001013152756E3A200020202000436F6D1D
:08148E006D616E643A2000005C
:00000001FF
