:100000000C94F7010C9414020C9414020C94140236
:100010000C94AE040C9414020C9414020C9414026C
:100020000C9414020C9414020C9414020C941402F8
:100030000C9414020C9414020C9414020C941402E8
:100040000C9414020C9414020C9440050C941402A9
:100050000C9414020C94BF050C9414020C9414021A
:100060000C9414020C94140200407A10F35A00A06D
:10007000724E18090010A5D4E80000E87648170071
:1000800000E40B54020000CA9A3B000000E1F505B1
:10009000000080969800000040420F000000A086FB
:1000A00001000000102700000000E803000000002D
:1000B0006400000000000A000000000001000000D1
:1000C00000002C76D888DC674F0823DFC1DFAE59EB
:1000D000E1B1B796E5E3E453C63AE651997696E87E
:1000E000E6C28426EB898C9B62ED407C6FFCEFBC02
:1000F0009C9F40F2BAA56FA5F490055A2AF75C932D
:100100006B6CF9676DC11BFCE0E40D47FEF520E662
:10011000B500D0ED902E0300943577050080841E45
:10012000080000204E0A000000C80C333333330FA0
:10013000986E12831141EF8D2114893BE65516CF3D
:10014000FEE6DB18D1844B381BF77C1D901DA4BB49
:10015000E424203284725E228100C9F124ECA1E5FE
:100160003D270000000000000000002F00000000FC
:100170000700070000147F147F1400242A7F2A122E
:10018000006264081323003649552250000005031D
:10019000000000001C224100000041221C0000144D
:1001A000083E08140008083E0808000000A060008F
:1001B000000808080808000060600000002010081F
:1001C0000402003E5149453E0000427F400000428B
:1001D00061514946002141454B31001814127F10EE
:1001E000002745454539003C4A494930000171091D
:1001F000050300364949493600064949291E0000D1
:100200003636000000005636000000081422410077
:1002100000141414141400004122140800020151A7
:10022000090600324959513E007C1211127C007FB0
:1002300049494936003E41414122007F4141221C4B
:10024000007F49494941007F09090901003E4149B0
:10025000497A007F0808087F0000417F41000020A4
:1002600040413F01007F08142241007F4040404050
:10027000007F020C027F007F0408107F003E414196
:10028000413E007F09090906003E4151215E007F81
:10029000091929460046494949310001017F0101F8
:1002A000003F4040403F001F2040201F003F40389B
:1002B000403F0063140814630007087008070061DA
:1002C0005149454300007F41410000552A552A55B8
:1002D000000041417F000004020102040040404050
:1002E0004040000001020400002054545478007F74
:1002F0004844443800384444442000384444487F4B
:1003000000385454541800087E0901020018A4A4AF
:10031000A47C007F080404780000447D4000004075
:1003200080847D00007F102844000000417F400051
:10033000007C04180478007C0804047800384444E5
:10034000443800FC242424180018242418FC007CC1
:100350000804040800485454542000043F4440203A
:10036000003C4040207C001C2040201C003C4030D1
:10037000403C004428102844001CA0A0A07C00445D
:1003800064544C4400000877410000000063000002
:10039000000041770800000804080804003A4040C3
:1003A000207A003D4040403D002154545479007D66
:1003B0001211127D003944444439003D4242423D0D
:1003C000000205020000007E01495573007C1010F8
:1003D000081CAE2000B0C8001040813FA1A6A83F75
:1003E000A4D300D5F0D922DA12DB208D1400112419
:1003F0001FBECFEFD8E0DEBFCDBF11E0A0E0B1E07F
:10040000ECE1FAE102C005900D92AC31B107D9F7E9
:1004100025E0ACE1B1E001C01D92A034B207E1F7E4
:100420000E940D060C940C0D0C9400001092B90063
:1004300088E48093B80084E08093BC00089594EA37
:100440009093BC00ECEBF0E090819923ECF7809363
:10045000BB0084E88093BC00ECEBF0E08081882353
:10046000ECF7089584E98093BC0008958093BB0065
:1004700084E88093BC00ECEBF0E080818823ECF70B
:10048000089584EC8093BC0080E491E0ECEBF0E014
:1004900009C0019739F480911F05886080931F057A
:1004A00080E0089520812223A4F78091BB00089565
:1004B00084E88093BC00ECEBF0E080818823ECF7CB
:1004C0008091BB000895EF92FF920F931F93CF93FB
:1004D000DF937C01162F88E70E941F0280E00E94B4
:1004E0003602112371F0E7011150012F10E00F5F68
:1004F0001F4F0E0D1F1D89910E943602C017D10794
:10050000D1F70E943202DF91CF911F910F91FF909E
:10051000EF900895EF92FF920F931F93CF93DF9385
:100520007C018B0188E70E941F0280E40E94360252
:100530000115110549F0E7010E0D1F1D89910E945B
:100540003602C017D107D1F70E943202DF91CF9156
:100550001F910F91FF90EF900895CF93DF9300D0FC
:1005600000D01F92CDB7DEB7863138F5683028F558
:10057000982F990F890F880FECE1F5E08083618354
:100580006055698391E29A8392E0980F9F709B83F4
:1005900090E00296807F9927959587959595879508
:1005A0009595879595958795805F8C838FE78D834B
:1005B00065E0CE0101960E9463020F900F900F90AC
:1005C0000F900F90DF91CF91089560E080E00E943E
:1005D000AD0208950F931F93CF93DF930CE111E0C9
:1005E000C0E0D0E8F8018D2F11928A95E9F76C2FC1
:1005F00080E00E94AD0260E870E0C8010E948A02BB
:10060000CF5F00581F4FC83069F70E94E502DF91A5
:10061000CF911F910F9108951F93CF93DF93CDB783
:10062000DEB76C970FB6F894DEBF0FBECDBF182FA4
:100630000E941602E2EDF3E0DE0111969E01245EB7
:100640003F4F84918D933196A217B307D1F71C8F3A
:100650006CE1CE0101960E9463020E94EA026C9650
:100660000FB6F894DEBF0FBECDBFDF91CF911F91C3
:1006700008954F925F926F927F929F92AF92BF9236
:10068000CF92DF92EF92FF920F931F93CF93DF935E
:10069000CDB7DEB72C970FB6F894DEBF0FBECDBF37
:1006A000893001F118F4883039F052C08A30E9F10C
:1006B0008D3009F447C04CC00CE115E0F801808191
:1006C000909100016181891B0E94AD0280E20E942D
:1006D0003903F8018081909100016181891B0E949A
:1006E000AD02EDC080911C0590910001292F30E0F2
:1006F000220F331F220F331FB901680F711D45E10F
:1007000050E02A01421A530A6415750540F4990F06
:10071000990F60911D05890F0E94AD02D0C06091B4
:100720001D0585E10E94AD02CAC080911D0587307C
:1007300008F0C5C060910001680F80911C050E94FF
:10074000AD02BDC060911D0580E00E94AD02B7C042
:1007500090901C050F2EF9E75F2EF02D591408F428
:10076000AEC0803208F4ABC080529091000192304C
:1007700009F085C09E012F5F3F4F790190E05C0139
:10078000AA0CBB1C8A0D9B1D880F991FFC01EE59FA
:10079000FE4F5F013E01FDE06F0E711C690101E03B
:1007A00010E0D60111961C921E92F501449121E0B1
:1007B00030E080E090E0E42FF0E0AF01082E02C0CE
:1007C000559547950A94E2F740FF1BC06D917C91C7
:1007D0001197A801022E02C0440F551F0A94E2F798
:1007E000642B752BAC01440F551F280102C0440C2B
:1007F000551C4A95E2F7A201462B572B11965C93A4
:100800004E9301962E5F3F4F88309105B1F622E05E
:10081000C20ED11C3FEFA31AB30AC614D70409F0C5
:10082000C0CFE92DF0E090911D05892F90E0019651
:100830009695982F882797958795DF01A80FB91F60
:10084000A45EBE4FE80FF91FAF0144565F4FF7019A
:1008500080819181F2E0EF0EF11C9C9311969C93A4
:100860001197FA018083818312964E5F5F4FE614E1
:10087000F70469F78CE0890D80931C0520C0209156
:100880001D0590E0FC01EE0FFF1FE80FF91FEE0FB2
:10089000FF1FEE59FE4FA92DB0E030E8239FA00DB9
:1008A000B11D1124A45EBE4F86E094919D938150AA
:1008B00031968111FACF86E0890D80931C052C9624
:1008C0000FB6F894DEBF0FBECDBFDF91CF911F9161
:1008D0000F91FF90EF90DF90CF90BF90AF909F90DF
:1008E0007F906F905F904F900895CF93DF93EC01CE
:1008F0008881882331F021960E94390389918111E2
:10090000FBCFDF91CF9108950F931F93CF930CE10D
:1009100011E0C0E06C2F80E00E94AD0260E870E062
:10092000C8010E948A02CF5F00581F4FC83091F75C
:10093000CF911F910F9108951092C50087E6809383
:10094000C400E0ECF0E0108288E98093C10086E00A
:100950008093C20080818064808308951F920F92EB
:100960000FB60F9211242F933F934F935F936F9382
:100970007F938F939F93AF93BF93CF93EF93FF9307
:10098000339B05C0109285001092840021C0809195
:100990008400909185009093310580933005CFB706
:1009A000F894609130057091310580E090E00E94EC
:1009B0005F092AE831EC4CE85AE30E94160A60937A
:1009C0002C0570932D0580932E0590932F05CFBF96
:1009D000FF91EF91CF91BF91AF919F918F917F91B7
:1009E0006F915F914F913F912F910F900FBE0F909C
:1009F0001F9018958AB180668AB917BC18BC84B557
:100A0000806884BD84B5806284BD84B5836084BD04
:100A100085B5856085BD08950E94FA048AB1846910
:100A20008AB9209A08958FEF87B93B98439A4298E4
:100A3000E4E6F0E08081877F808310928500109249
:100A40008400E1E8F0E080818160808380818064BF
:100A5000808382E08093680088E080936C00089532
:100A60005A9A5C9888BD08955A985C9A88BD0895F2
:100A70005F9A289887BD08955F98289A87BD089542
:100A80001F920F920FB60F9211242F933F934F9303
:100A90005F936F937F938F939F93AF93BF93EF93E6
:100AA000FF938091C600823441F08334B1F08134E9
:100AB000E9F481E38093010119C080E00E943005D0
:100AC00080E00E943C052FEF83E294EF21508040AC
:100AD0009040E1F700C0000009C080E00E943005AE
:100AE00080E00E943C0580E380930101FF91EF913B
:100AF000BF91AF919F918F917F916F915F914F9136
:100B00003F912F910F900FBE0F901F901895CF938C
:100B1000DF931816190674F4EC01992324F4CC27FA
:100B2000DD27C81BD90B8C2F0E9430058C2F0E940B
:100B30003C050DC0EC01992324F4CC27DD27C81B0C
:100B4000D90B8C2F0E9434058C2F0E943805DF9121
:100B5000CF910895429A85E38A95F1F70000429873
:100B60000895ECE7F0E09081907E8F71892B80836F
:100B70000895EAE7F0E080818064808308951F9201
:100B80000F920FB60F9211242F933F934F935F93C1
:100B90006F937F938F939F93AF93BF93EF93FF9345
:100BA00080910201863018F081E0809302018091EB
:100BB00002010E94B105E0910201F0E0809178000D
:100BC00090917900EE0FFF1FE05EFA4F91838083D2
:100BD000809102018F5F809302010E94B905FF910D
:100BE000EF91BF91AF919F918F917F916F915F91A5
:100BF0004F913F912F910F900FBE0F901F9018951E
:100C000080E480937C008FE880937A0081E00E94EA
:100C1000B10578940E94B9050895CF93DF93CDB7BD
:100C2000DEB7C057D1090FB6F894DEBF0FBECDBFF7
:100C30000E949C040E940C050E9400060E9413055D
:100C40008FEF84B98FEA0E940C030E9416082FEFE1
:100C500080E792E0215080409040E1F700C0000022
:100C6000A9961CAE1DAE1EAE1FAEA997AD961CAECA
:100C70001DAE1EAE1FAEAD97E1961CAE1DAE1EAEF4
:100C80001FAEE197772473942FEF8DEE92E0215001
:100C900080409040E1F700C00000AE0143595F4F33
:100CA000BE0167597F4FCE018B599F4F0E94730839
:100CB0002AE037ED43EA5CE3A9966CAD7DAD8EADDD
:100CC0009FADA9970E94EE086B017C01A9966CAFBD
:100CD0007DAF8EAF9FAFA9972DEC3CEC4CE45DE36C
:100CE000AD966CAD7DAD8EAD9FADAD970E94EE081B
:100CF0004B015C01AD966CAF7DAF8EAF9FAFAD97F2
:100D00002DEC3CEC4CE45EE3E1966CAD7DAD8EAD3C
:100D10009FADE1970E94ED08E1966CAF7DAF8EAF7D
:100D20009FAFE1972CEE31E548E35EE3C701B601E2
:100D30000E94110A1816F4F02CEE31E548E35EEB40
:100D4000C701B6010E945A098823A4F02CEE31E5B0
:100D500048E35EE3C501B4010E94110A181654F07D
:100D60002CEE31E548E35EEBC501B4010E945A095F
:100D7000882314F470921E050E94AA0560912C0528
:100D800070912D0580912E0590912F058E010F5F9A
:100D90001F4F272D43E00E94830A60E080E00E94FD
:100DA000AD0283E091E00E947504C8010E947504C1
:100DB0008EE091E00E9475040E94840465E080E06A
:100DC0000E94AD0282E191E00E94750480911E05AF
:100DD00090E00E9475048EE091E00E9475040E94EC
:100DE000840420E030E040E251E460912C057091F1
:100DF0002D0580912E0590912F050E94110A18163D
:100E00004CF480911E05811105C08EE790E00E9490
:100E100087053ACF80E090E00E94870535CFAF92FA
:100E2000BF92CF92DF92FF920F931F93CF93DF93E6
:100E30006623B9F1C52FD42FF62E182F80ED0E940E
:100E40001F02812F0E94360283E08A95F1F700008D
:100E500081ED0E941F020D2F1C2FCC24CA94CF0CB1
:100E6000D12CEFEFCE1ADE0AC0E0D0E0AF2CB12CCF
:100E7000F1E0AF1AB108AC16BD0629F40E94580281
:100E8000F801808304C00E944102F801808321960A
:100E90000F5F1F4FCC15DD0571F7CF2D0E94320279
:100EA00001C0C0E08C2FDF91CF911F910F91FF9077
:100EB000DF90CF90BF90AF900895AB0161E00E94AA
:100EC0000F070895EF92FF920F931F93CF93DF9335
:100ED0006623D1F07A01162FC82F80ED0E941F02E1
:100EE0008C2F0E943602E7016FEF610F062F10E092
:100EF0000F5F1F4F0E0D1F1D89910E943602C017F4
:100F0000D107D1F70E943202DF91CF911F910F914B
:100F1000FF90EF900895CF93DF931F92CDB7DEB788
:100F20006983AE014F5F5F4F61E00E9462070F90DF
:100F3000DF91CF910895EF92FF920F931F93CF937C
:100F4000DF931F92CDB7DEB7442389F1F22E142F21
:100F5000062FE82E1982BE016F5F7F4F0E945D074A
:100F6000882329F1402F50E0411B51094F5F5F4F0B
:100F700081E090E002C0880F991F1A95E2F701976F
:100F8000042E02C0880F991F0A94E2F72F2D30E03B
:100F900002C0220F331F4A95E2F7682F60959981AE
:100FA00069238223682B69838E2D0E948B070F9003
:100FB000DF91CF911F910F91FF90EF900895FF92D5
:100FC0000F931F93CF93DF931F92CDB7DEB7182FE8
:100FD000062FF42EBE016F5F7F4F0E945D07FF203A
:100FE00051F061E070E002C0660F771F0A95E2F7EA
:100FF0008981682B0AC061E070E002C0660F771F2C
:101000000A95E2F76095898168236983812F0E94A0
:101010008B070F90DF91CF911F910F91FF90089553
:1010200040E066E08BE60E94DF0708950E9416020A
:1010300083E08A95F1F7000087EA91E60197F1F7DE
:1010400000C000000E94100883EC99E00197F1F7BE
:1010500000C0000021E043E062E08BE60E949B07B5
:1010600023E043E062E08AE10E949B0764E089E1BB
:101070000E948B0723E042E064E08BE10E949B0723
:1010800020E042E064E08CE10E949B070895EF922B
:10109000FF920F931F93CF93DF937C018B01EA01A3
:1010A00042E355E066E08BE30E940F07E2E3F5E0E0
:1010B0002081818190E0922BD7018D939C93228196
:1010C000838190E0922BD8018D939C93248185811C
:1010D00090E0922B99838883DF91CF911F910F919C
:1010E000FF90EF900895CF92DF92EF92FF920F93CF
:1010F0001F93CF93DF9300D000D000D0CDB7DEB7E1
:101100006C017B018A011A8219821C821B821E8259
:101110001D82AE014B5F5F4FBE016D5F7F4FCE0101
:1011200001960E94470869817A81072E000C880B7E
:10113000990B0E9461092AE037ED43EA5CE30E94C3
:10114000ED0820E030E040E858E30E94160AF6017E
:1011500060837183828393836B817C81072E000C73
:10116000880B990B0E9461092DEC3CEC4CE45DE38B
:101170000E94ED0820E030E040E858E30E94160AA3
:10118000F70160837183828393836D817E81072E53
:10119000000C880B990B0E9461092DEC3CEC4CE48F
:1011A0005EE30E94EE0820E030E040E858E30E9451
:1011B000160AF801608371838283938326960FB6A3
:1011C000F894DEBF0FBECDBFDF91CF911F910F917D
:1011D000FF90EF90DF90CF9008955058BB27AA273B
:1011E0000E9405090C94D7090E94C90938F00E9491
:1011F000D00920F039F49F3F19F426F40C94C60965
:101200000EF4E095E7FB0C94C009E92F0E94E80971
:1012100058F3BA17620773078407950720F079F42B
:10122000A6F50C940A0A0EF4E0950B2EBA2FA02D09
:101230000B01B90190010C01CA01A0011124FF2783
:10124000591B99F0593F50F4503E68F11A16F0407E
:10125000A22F232F342F4427585FF3CF469537957D
:101260002795A795F0405395C9F77EF41F16BA0B42
:10127000620B730B840BBAF09150A1F0FF0FBB1FF0
:10128000661F771F881FC2F70EC0BA0F621F731F39
:10129000841F48F4879577956795B795F7959E3F96
:1012A00008F0B0CF9395880F08F09927EE0F979527
:1012B000879508950E949C0908F481E00895E894B8
:1012C00009C097FB3EF490958095709561957F4F8E
:1012D0008F4F9F4F9923A9F0F92F96E9BB2793953C
:1012E000F695879577956795B795F111F8CFFAF44C
:1012F000BB0F11F460FF1BC06F5F7F4F8F4F9F4F7D
:1013000016C0882311F096E911C0772321F09EE8DA
:10131000872F762F05C0662371F096E8862F70E040
:1013200060E02AF09A95660F771F881FDAF7880F1A
:101330009695879597F90895990F0008550FAA0B70
:10134000E0E8FEEF16161706E807F907C0F01216D8
:101350001306E407F50798F0621B730B840B950BDB
:1013600039F40A2661F0232B242B252B21F4089530
:101370000A2609F4A140A6958FEF811D811D0895CD
:1013800097F99F6780E870E060E008959FEF80EC38
:10139000089500240A9416161706180609060895DB
:1013A00000240A9412161306140605060895092E41
:1013B0000394000C11F4882352F0BB0F40F4BF2BB0
:1013C00011F460FF04C06F5F7F4F8F4F9F4F0895F0
:1013D00057FD9058440F551F59F05F3F71F04795E6
:1013E000880F97FB991F61F09F3F79F087950895CB
:1013F000121613061406551FF2CF4695F1DF08C0EA
:10140000161617061806991FF1CF86957105610506
:1014100008940895E894BB2766277727CB0197F9AE
:1014200008950E949C0908F48FEF08950E94290AEC
:101430000C94D7090E94C90938F00E94D00920F005
:10144000952311F00C94C0090C94C60911240C9436
:101450000B0A0E94E80970F3959FC1F3950F50E0C5
:10146000551F629FF001729FBB27F00DB11D639F56
:10147000AA27F00DB11DAA1F649F6627B00DA11DFC
:10148000661F829F2227B00DA11D621F739FB00DA2
:10149000A11D621F839FA00D611D221F749F332712
:1014A000A00D611D231F849F600D211D822F762FAB
:1014B0006A2F11249F5750409AF0F1F088234AF088
:1014C000EE0FFF1FBB1F661F771F881F91505040F4
:1014D000A9F79E3F510580F00C94C0090C940B0AAB
:1014E0005F3FE4F3983ED4F3869577956795B7957B
:1014F000F795E7959F5FC1F7FE2B880F911D969595
:10150000879597F90895EF920F931F93CF93DF93E9
:10151000E80147FD02C034E001C034E1042E000CB4
:10152000550B57FF03C0519541955109E32E022FEA
:10153000242FAE010E94A30ACE01DF91CF911F910B
:101540000F91EF900895A9E0B0E0E9EAFAE00C9479
:10155000DB0C6A01122FB02E2BE3201720F0FF24A2
:10156000F394F00E02C02CE3F22E0F2D27E0AE0113
:101570004F5F5F4F0E94FD0BBC014981842F897032
:10158000813031F0E1FC06C0E0FE06C090E205C00B
:101590009DE203C09BE201C090E05E2D507143FFCD
:1015A0003CC0911102C083E001C084E0811718F4AF
:1015B000212F281B01C020E051110BC0F601822F02
:1015C00030E2882319F031938150FBCFC20ED11C39
:1015D00020E0992329F0D6019C93F60131966F0102
:1015E000C6010396E2FE0AC03EE4D6013C9341E404
:1015F00011964C93119712963C9306C03EE6F60165
:10160000308341E641833283FC01322F40E23323B1
:1016100009F442C041933150FACF42FF44C09111C6
:1016200002C083E001C084E0811718F4212F281B39
:1016300001C020E051110BC0F601822F30E2882357
:1016400019F031938150FBCFC20ED11C20E09923B9
:1016500029F0D6019C93F60131966F01C6010396DD
:10166000E2FE0BC039E4D6013C933EE411963C9374
:10167000119736E412963C9307C039E6F6013083A1
:101680003EE6318336E63283FC01322F40E23323DB
:1016900019F041933150FBCFFC01E20FF11D108294
:1016A0008EEF9FEFA6C021E030E0911102C020E054
:1016B00030E0161617061CF4FB01319602C0E1E07B
:1016C000F0E02E0F3F1FBB2021F0EB2DF0E0319614
:1016D00002C0E0E0F0E02E0F3F1FE12FF0E02E17F8
:1016E0003F071CF4121B212F01C020E08E2D8871B2
:1016F00059F4F601822F30E2882319F0319381509A
:10170000FBCFC20ED11C20E0992329F0D6019C9377
:10171000F60131966F0151110BC0F601822F90E353
:10172000882319F091938150FBCFC20ED11C20E089
:101730000F2D060F9A81342F307144FF03C091336F
:1017400009F40150101624F4093018F008E001C023
:1017500001E0AB0177FF02C040E050E0FB01E41B79
:10176000F50BA1E0B0E0AC0FBD1FEA0FFB1F8EE24E
:10177000A82E4B01801A91080B2D10E011950195B0
:1017800011094F3FBFEF5B0721F4D601AC921196D0
:101790006D01641775072CF08416950614F4818189
:1017A00001C080E3415051093196D60111967D0167
:1017B0004017510724F0D6018C936701E2CF6417DC
:1017C000750739F4963320F4953319F4311101C0BB
:1017D00081E3F6018083F701822F90E2882319F0DC
:1017E00091938150FBCFF701E20FF11D108280E051
:1017F00090E02996ECE00C94F70C283008F027E0F4
:101800003327DA01990F311D87FD9160009661053C
:10181000710539F432602E5F3D9330E32A95E1F78C
:1018200008959F3F30F080387105610509F03C5FF5
:101830003C5F3D93913008F08068911DDF93CF931A
:101840001F930F93FF92EF92192F987F9695E92F90
:1018500096959695E90FFF27EE53FF4F992733276B
:10186000EE24FF24A701E70105900894079428F4CB
:10187000360FE71EF81E491F511D660F771F881F80
:10188000991F0694A1F70590079428F4E70EF81E17
:10189000491F561FC11D770F881F991F661F069489
:1018A000A1F70590079428F4F80E491F561FC71F8B
:1018B000D11D880F991F661F771F0694A1F7059009
:1018C000079420F4490F561FC71FD81F990F661F92
:1018D000771F881F0694A9F784911095177041F01F
:1018E000D695C79557954795F794E7941A95C1F7FC
:1018F000E8E6F0E068941590159135916591959121
:1019000005907FE27395E118F10A430B560BC90B62
:10191000D009C0F7E10CF11E431F561FC91FD01D8F
:101920007EF4703311F48A95E6CFE894015030F0DC
:10193000080F0AF40027021708F4202F2395022F1E
:101940007A3328F079E37D932A95E9F710C07D93E7
:101950002A9589F606949795679537951795179464
:10196000E118F10A430B560BC90BD00998F02395E7
:101970007E9173957A3308F070E37C932013B8F767
:101980007E9170617D9330F0839571E37D9370E378
:101990002A95E1F71124EF90FF900F911F91CF91BD
:1019A000DF91992787FD909508952F923F924F924E
:1019B0005F926F927F928F929F92AF92BF92CF92DF
:1019C000DF92EF92FF920F931F93CF93DF93CDB7E8
:1019D000DEB7CA1BDB0B0FB6F894DEBF0FBECDBF60
:1019E00009942A88398848885F846E847D848C8431
:1019F0009B84AA84B984C884DF80EE80FD800C813A
:101A00001B81AA81B981CE0FD11D0FB6F894DEBF1C
:0C1A10000FBECDBFED010895F894FFCF8C
:101A1C0001310144697374616E63653A20002020C2
:0C1A2C0020005374617475733A200000B0
:00000001FF
