:100000000C94F0000C940D010C940D010C940D0156
:100010000C945C020C940D010C940D010C940D01D8
:100020000C940D010C940D010C940D010C940D0118
:100030000C940D010C940D010C940D010C940D0108
:100040000C940D010C940D010C944C020C940D01B8
:100050000C940D010C940D010C940D010C940D01E8
:100060000C940D010C940D01C604CC03CC03CC03FD
:10007000BC04CC03CC03CC03CC03CC03A804CC033A
:10008000CC03CC03CC03CC03B204A504CC03CC0337
:10009000CC03CC03CC03CC03CC03CC03CC03CC03E8
:1000A000CC03CC03CC03CC03CB04CC03CC03CC03D8
:1000B000C104CC03CC03CC03CC03CC03AD04CC03F0
:1000C000CC03CC03CC03CC03B70400407A10F35A22
:1000D00000A0724E18090010A5D4E80000E8764888
:1000E000170000E40B54020000CA9A3B000000E134
:1000F000F505000080969800000040420F000000C7
:10010000A08601000000102700000000E8030000A6
:1001100000006400000000000A0000000000010070
:10012000000000002C76D888DC674F0823DFC1DF91
:10013000AE59E1B1B796E5E3E453C63AE651997694
:1001400096E8E6C28426EB898C9B62ED407C6FFCCE
:10015000EFBC9C9F40F2BAA56FA5F490055A2AF710
:100160005C936B6CF9676DC11BFCE0E40D47FEF519
:1001700020E6B500D0ED902E030094357705008081
:10018000841E080000204E0A000000C80C333333E0
:10019000330F986E12831141EF8D2114893BE65580
:1001A00016CFFEE6DB18D1844B381BF77C1D901D63
:1001B000A4BBE424203284725E228100C9F124ECC5
:1001C000A1E53D27AE2000B0C8001040813FA1A6A8
:1001D000A83FA4D300D5F0D922DA12DB208D140079
:1001E00011241FBECFEFD8E0DEBFCDBF11E0A0E0ED
:1001F000B1E0EAEAF5E102C005900D92A230B10744
:10020000D9F725E0A2E0B1E001C01D92AB31B20701
:10021000E1F70E9496030C94D30A0C94000010920C
:10022000B90088E48093B80084E08093BC0008950E
:1002300094EA9093BC00ECEBF0E090819923ECF70A
:100240008093BB0084E88093BC00ECEBF0E08081FD
:100250008823ECF7089584E98093BC000895809387
:10026000BB0084E88093BC00ECEBF0E08081882345
:10027000ECF7089584EC8093BC0080E491E0ECEB13
:10028000F0E009C0019739F48091060588608093F9
:10029000060580E0089520812223A4F78091BB0009
:1002A000089584E88093BC00ECEBF0E08081882323
:1002B000ECF78091BB000895EF92FF920F931F938C
:1002C000CF93DF937C01162F88E70E94180180E00E
:1002D0000E942F01112371F0E7011150012F10E04E
:1002E0000F5F1F4F0E0D1F1D89910E942F01C01718
:1002F000D107D1F70E942B01DF91CF911F910F9170
:10030000FF90EF900895EF92FF920F931F93CF937A
:10031000DF937C018B0188E70E94180180E40E9432
:100320002F010115110549F0E7010E0D1F1D8991DF
:100330000E942F01C017D107D1F70E942B01DF9136
:10034000CF911F910F91FF90EF900895CF93DF937E
:1003500000D000D01F92CDB7DEB7863138F56830B7
:1003600028F5982F990F890F880FE2E0F5E0808338
:1003700061836055698391E29A8392E0980F9F7040
:100380009B8390E00296807F992795958795959518
:1003900087959595879595958795805F8C838FE751
:1003A0008D8365E0CE0101960E945C010F900F9055
:1003B0000F900F900F90DF91CF91089560E080E053
:1003C0000E94A60108950F931F93CF93DF9302E03D
:1003D00011E0C0E0D0E8F8018D2F11928A95E9F77D
:1003E0006C2F80E00E94A60160E870E0C8010E94C6
:1003F0008301CF5F00581F4FC83069F70E94DE01AC
:10040000DF91CF911F910F9108951F93CF93DF93A9
:10041000CDB7DEB76C970FB6F894DEBF0FBECDBF79
:10042000182F0E940F01E4ECF1E0DE0111969E010D
:10043000245E3F4F84918D933196A217B307D1F775
:100440001C8F6CE1CE0101960E945C010E94E301C9
:100450006C960FB6F894DEBF0FBECDBFDF91CF9183
:100460001F9108951092C50087E68093C400E0ECC8
:10047000F0E0108288E98093C10086E08093C2009A
:100480008081806480830895E0ECF0E0908195FFA6
:10049000FDCF8093C60008951F920F920FB60F9262
:1004A00011248F938091C600809300018F910F904B
:1004B0000FBE0F901F9018951F920F920FB60F92BC
:1004C00011242F933F934F935F936F937F938F9359
:1004D0009F93AF93BF93CF93EF93FF93339B05C04D
:1004E000109285001092840039C080918400909110
:1004F000850090930C0580930B05CFB7F8948091FD
:100500000B0590910C05873427E0920738F487E4B7
:1005100097E090930C0580930B0509C081329D46AE
:1005200030F080E29DE690930C0580930B0560917E
:100530000B0570910C0580E090E00E9420072AE8EE
:1005400031EC4CE85AE30E94D7076093070570939B
:1005500008058093090590930A05CFBFFF91EF919D
:10056000CF91BF91AF919F918F917F916F915F914B
:100570004F913F912F910F900FBE0F901F901895A4
:100580008AB180668AB917BC18BC84B5806884BDFE
:1005900084B5806284BD84B5836084BD85B5856083
:1005A00085BD08950E94C0028AB184698AB9209AE3
:1005B00008958FEF87B93B98439A4298E4E6F0E0BC
:1005C0008081877F80831092850010928400E1E80B
:1005D000F0E080818160808380818064808382E01C
:1005E0008093680088E080936C0008955A9A5C9824
:1005F00088BD08955A985C9A88BD08955F9A289896
:1006000087BD08955F98289A87BD08955A985C9889
:1006100018BC08955F98289817BC08950E94060397
:100620000E940A030895CF93DF931816190674F4F5
:10063000EC01992324F4CC27DD27C81BD90B8C2F80
:100640000E94F6028C2F0E9402030DC0EC01992338
:1006500024F4CC27DD27C81BD90B8C2F0E94FA026B
:100660008C2F0E94FE02DF91CF9108951816190673
:100670005CF49C01992324F422273327281B390B8F
:10068000822F0E94FE0208959C01992324F42227C0
:100690003327281B390B822F0E9402030895181656
:1006A00019065CF49C01992324F422273327281B84
:1006B000390B822F0E94FA0208959C01992324F499
:1006C00022273327281B390B822F0E94F602089518
:1006D000CF93DF93CC27DD27C81BD90BCE010AF4BB
:1006E0000196959587950E943603CE010E944F038F
:1006F000DF91CF910895CF93DF93CC27DD27C81BDF
:10070000D90BCE010E943603CE01DD230CF40196F5
:10071000959587950E944F03DF91CF910895429A56
:1007200085E38A95F1F7000042980895CF93DF930F
:10073000CDB7DEB7C057D1090FB6F894DEBF0FBEF4
:10074000CDBF0E9432020E94D2020E94D902789448
:100750008FEF84B98FEA0E9405020E94D7052FEF20
:1007600080E792E0215080409040E1F700C0000017
:10077000A9961CAE1DAE1EAE1FAEA997AD961CAEBF
:100780001DAE1EAE1FAEAD97E1961CAE1DAE1EAEE9
:100790001FAEE197BB24B3942FEF8DEE92E0215072
:1007A00080409040E1F700C00000AE0143595F4F28
:1007B000BE0167597F4FCE018B599F4F0E9434066F
:1007C0002AE037ED43EA5CE3A9966CAD7DAD8EADD2
:1007D0009FADA9970E94AF066B017C01A9966CAFF3
:1007E0007DAF8EAF9FAFA9972DEC3CEC4CE45DE361
:1007F000AD966CAD7DAD8EAD9FADAD970E94AF0651
:100800002B013C01AD966CAF7DAF8EAF9FAFAD9726
:100810002DEC3CEC4CE45EE3E1966CAD7DAD8EAD31
:100820009FADE1970E94AE06E1966CAF7DAF8EAFB3
:100830009FAFE1972DEC3CEC4CE45EE3C701B601C1
:100840000E94D2071816F4F02DEC3CEC4CE45EEB61
:10085000C701B6010E941B078823A4F02AE939E9E1
:1008600049E15FE3C301B2010E94D207181654F0B8
:100870002AE939E949E15FEBC301B2010E941B0794
:10088000882314F4B09205050E948F036091070538
:10089000709108058091090590910A058E010F5FFE
:1008A0001F4F2B2D43E00E944A0820E030E040EC2F
:1008B00050E46091070570910805809109059091B9
:1008C0000A050E941B0788233CF4B092040580911E
:1008D0000001823641F40BC0109204058091050599
:1008E000811110C020C080910001823429F481E878
:1008F0009FEF0E94130350CF8FE40E9444020E9496
:100900000E034ACF88E40E9444020E940E032FEF98
:1009100083ED90E3215080409040E1F700C000005B
:100920001092050539CF84E40E944402E091000151
:100930008E2F90E0FC01E254F109E133F10508F05B
:100940002BCFEC5CFF4F0C9444080E940E0324CF85
:100950008FEF90E00E947B031FCF8FE790E00E9413
:100960007B031ACF8FEF90E00E94680315CF8FE7CB
:1009700090E00E94680310CF8FEF90E00E94130375
:100980000BCF8FE790E00E94130306CF81E09FEF2B
:100990000E94130301CF81E89FEF0E941303FCCE56
:1009A000AF92BF92CF92DF92FF920F931F93CF939C
:1009B000DF936623B9F1C52FD42FF62E182F80EDC3
:1009C0000E941801812F0E942F0183E08A95F1F780
:1009D000000081ED0E9418010D2F1C2FCC24CA9419
:1009E000CF0CD12CEFEFCE1ADE0AC0E0D0E0AF2C56
:1009F000B12CF1E0AF1AB108AC16BD0629F40E9483
:100A00005101F801808304C00E943A01F8018083FB
:100A100021960F5F1F4FCC15DD0571F7CF2D0E947A
:100A20002B0101C0C0E08C2FDF91CF911F910F915E
:100A3000FF90DF90CF90BF90AF900895AB0161E041
:100A40000E94D0040895EF92FF920F931F93CF93CB
:100A5000DF936623D1F07A01162FC82F80ED0E9414
:100A600018018C2F0E942F01E7016FEF610F062FF5
:100A700010E00F5F1F4F0E0D1F1D89910E942F0167
:100A8000C017D107D1F70E942B01DF91CF911F91A1
:100A90000F91FF90EF900895CF93DF931F92CDB702
:100AA000DEB76983AE014F5F5F4F61E00E942305AF
:100AB0000F90DF91CF910895EF92FF920F931F93C4
:100AC000CF93DF931F92CDB7DEB7442389F1F22E87
:100AD000142F062FE82E1982BE016F5F7F4F0E94F0
:100AE0001E05882329F1402F50E0411B51094F5F1B
:100AF0005F4F81E090E002C0880F991F1A95E2F7DE
:100B00000197042E02C0880F991F0A94E2F72F2D37
:100B100030E002C0220F331F4A95E2F7682F60953C
:100B2000998169238223682B69838E2D0E944C054D
:100B30000F90DF91CF911F910F91FF90EF9008954B
:100B4000FF920F931F93CF93DF931F92CDB7DEB722
:100B5000182F062FF42EBE016F5F7F4F0E941E05D7
:100B6000FF2051F061E070E002C0660F771F0A9528
:100B7000E2F78981682B0AC061E070E002C0660F6D
:100B8000771F0A95E2F76095898168236983812F31
:100B90000E944C050F90DF91CF911F910F91FF9014
:100BA000089540E066E08BE60E94A00508950E944B
:100BB0000F0183E08A95F1F7000087EA91E601973B
:100BC000F1F700C000000E94D10583EC99E0019785
:100BD000F1F700C0000021E043E062E08BE60E94F4
:100BE0005C0523E043E062E08AE10E945C0564E08A
:100BF00089E10E944C0523E042E064E08BE10E9421
:100C00005C0520E042E064E08CE10E945C05089510
:100C1000EF92FF920F931F93CF93DF937C018B0191
:100C2000EA014DE055E066E08BE30E94D004EDE080
:100C3000F5E02081818190E0922BD7018D939C93E8
:100C40002281838190E0922BD8018D939C93248103
:100C5000858190E0922B99838883DF91CF911F91BA
:100C60000F91FF90EF900895CF92DF92EF92FF9255
:100C70000F931F93CF93DF9300D000D000D0CDB758
:100C8000DEB76C017B018A011A8219821C821B82E9
:100C90001E821D82AE014B5F5F4FBE016D5F7F4FB5
:100CA000CE0101960E94080669817A81072E000C08
:100CB000880B990B0E9422072AE037ED43EA5CE398
:100CC0000E94AE0620E030E040E858E30E94D707DB
:100CD000F60160837183828393836B817C81072E0D
:100CE000000C880B990B0E9422072DEC3CEC4CE485
:100CF0005DE30E94AE0620E030E040E858E30E9449
:100D0000D707F70160837183828393836D817E812E
:100D1000072E000C880B990B0E9422072DEC3CEC4F
:100D20004CE45EE30E94AF0620E030E040E858E388
:100D30000E94D707F801608371838283938326968C
:100D40000FB6F894DEBF0FBECDBFDF91CF911F91DC
:100D50000F91FF90EF90DF90CF9008955058BB27F0
:100D6000AA270E94C6060C9498070E948A0738F0AA
:100D70000E94910720F039F49F3F19F426F40C9457
:100D800087070EF4E095E7FB0C948107E92F0E949A
:100D9000A90758F3BA17620773078407950720F06D
:100DA00079F4A6F50C94CB070EF4E0950B2EBA2F30
:100DB000A02D0B01B90190010C01CA01A001112461
:100DC000FF27591B99F0593F50F4503E68F11A160D
:100DD000F040A22F232F342F4427585FF3CF46959E
:100DE00037952795A795F0405395C9F77EF41F16C0
:100DF000BA0B620B730B840BBAF09150A1F0FF0F8A
:100E0000BB1F661F771F881FC2F70EC0BA0F621F75
:100E1000731F841F48F4879577956795B795F79565
:100E20009E3F08F0B0CF9395880F08F09927EE0FFA
:100E30009795879508950E945D0708F481E00895CD
:100E4000E89409C097FB3EF4909580957095619564
:100E50007F4F8F4F9F4F9923A9F0F92F96E9BB271A
:100E60009395F695879577956795B795F111F8CF96
:100E7000FAF4BB0F11F460FF1BC06F5F7F4F8F4F01
:100E80009F4F16C0882311F096E911C0772321F0F7
:100E90009EE8872F762F05C0662371F096E8862F8F
:100EA00070E060E02AF09A95660F771F881FDAF7E6
:100EB000880F9695879597F90895990F0008550F13
:100EC000AA0BE0E8FEEF16161706E807F907C0F0D0
:100ED00012161306E407F50798F0621B730B840BD8
:100EE000950B39F40A2661F0232B242B252B21F4B2
:100EF00008950A2609F4A140A6958FEF811D811D52
:100F0000089597F99F6780E870E060E008959FEF8B
:100F100080EC089500240A94161617061806090690
:100F2000089500240A94121613061406050608955F
:100F3000092E0394000C11F4882352F0BB0F40F4E7
:100F4000BF2B11F460FF04C06F5F7F4F8F4F9F4F27
:100F5000089557FD9058440F551F59F05F3F71F0A9
:100F60004795880F97FB991F61F09F3F79F0879510
:100F70000895121613061406551FF2CF4695F1DF99
:100F800008C0161617061806991FF1CF8695710529
:100F9000610508940895E894BB2766277727CB015D
:100FA00097F908950E945D0708F48FEF08950E9455
:100FB000EA070C9498070E948A0738F00E9491076C
:100FC00020F0952311F00C9481070C9487071124CD
:100FD0000C94CC070E94A90770F3959FC1F3950F5D
:100FE00050E0551F629FF001729FBB27F00DB11DAD
:100FF000639FAA27F00DB11DAA1F649F6627B00D3D
:10100000A11D661F829F2227B00DA11D621F739F25
:10101000B00DA11D621F839FA00D611D221F749F33
:101020003327A00D611D231F849F600D211D822F7A
:10103000762F6A2F11249F5750409AF0F1F08823A1
:101040004AF0EE0FFF1FBB1F661F771F881F9150CE
:101050005040A9F79E3F510580F00C9481070C94F5
:10106000CC075F3FE4F3983ED4F386957795679578
:10107000B795F795E7959F5FC1F7FE2B880F911DF8
:101080009695879597F90895EE0FFF1F0590F491B7
:10109000E02D0994EF920F931F93CF93DF93E80114
:1010A00047FD02C034E001C034E1042E000C550BB2
:1010B00057FF03C0519541955109E32E022F242F6C
:1010C000AE010E946A08CE01DF91CF911F910F916E
:1010D000EF900895A9E0B0E0E0E7F8E00C94A20AF0
:1010E0006A01122FB02E2BE3201720F0FF24F39477
:1010F000F00E02C02CE3F22E0F2D27E0AE014F5F61
:101100005F4F0E94C409BC014981842F89708130DE
:1011100031F0E1FC06C0E0FE06C090E205C09DE2B1
:1011200003C09BE201C090E05E2D507143FF3CC0C4
:10113000911102C083E001C084E0811718F4212FCF
:10114000281B01C020E051110BC0F601822F30E2B4
:10115000882319F031938150FBCFC20ED11C20E0BF
:10116000992329F0D6019C93F60131966F01C601AF
:101170000396E2FE0AC03EE4D6013C9341E4119698
:101180004C93119712963C9306C03EE6F6013083CD
:1011900041E641833283FC01322F40E2332309F4DC
:1011A00042C041933150FACF42FF44C0911102C076
:1011B00083E001C084E0811718F4212F281B01C0AF
:1011C00020E051110BC0F601822F30E2882319F084
:1011D00031938150FBCFC20ED11C20E0992329F01E
:1011E000D6019C93F60131966F01C6010396E2FE8B
:1011F0000BC039E4D6013C933EE411963C93119721
:1012000036E412963C9307C039E6F60130833EE699
:10121000318336E63283FC01322F40E2332319F06A
:1012200041933150FBCFFC01E20FF11D10828EEF94
:101230009FEFA6C021E030E0911102C020E030E035
:10124000161617061CF4FB01319602C0E1E0F0E02F
:101250002E0F3F1FBB2021F0EB2DF0E0319602C096
:10126000E0E0F0E02E0F3F1FE12FF0E02E173F07E8
:101270001CF4121B212F01C020E08E2D887159F41F
:10128000F601822F30E2882319F031938150FBCF91
:10129000C20ED11C20E0992329F0D6019C93F601BF
:1012A00031966F0151110BC0F601822F90E3882314
:1012B00019F091938150FBCFC20ED11C20E00F2D6D
:1012C000060F9A81342F307144FF03C0913309F423
:1012D0000150101624F4093018F008E001C001E0B4
:1012E000AB0177FF02C040E050E0FB01E41BF50BCF
:1012F000A1E0B0E0AC0FBD1FEA0FFB1F8EE2A82EED
:101300004B01801A91080B2D10E0119501951109E0
:101310004F3FBFEF5B0721F4D601AC9211966D01F0
:10132000641775072CF08416950614F4818101C0AA
:1013300080E3415051093196D60111967D01401745
:10134000510724F0D6018C936701E2CF641775072B
:1013500039F4963320F4953319F4311101C081E347
:10136000F6018083F701822F90E2882319F0919390
:101370008150FBCFF701E20FF11D108280E090E079
:101380002996ECE00C94BE0A283008F027E03327B9
:10139000DA01990F311D87FD916000966105710595
:1013A00039F432602E5F3D9330E32A95E1F70895DA
:1013B0009F3F30F080387105610509F03C5F3C5F6C
:1013C0003D93913008F08068911DDF93CF931F9378
:1013D0000F93FF92EF92192F987F9695E92F96958C
:1013E0009695E90FFF27EC5DFE4F99273327EE24F2
:1013F000FF24A701E70105900894079428F4360F0D
:10140000E71EF81E491F511D660F771F881F991F81
:101410000694A1F70590079428F4E70EF81E491FDB
:10142000561FC11D770F881F991F661F0694A1F7CD
:101430000590079428F4F80E491F561FC71FD11DA9
:10144000880F991F661F771F0694A1F705900794D0
:1014500020F4490F561FC71FD81F990F661F771F0B
:10146000881F0694A9F784911095177041F0D695BE
:10147000C79557954795F794E7941A95C1F7EAEC05
:10148000F0E06894159015913591659195910590CE
:101490007FE27395E118F10A430B560BC90BD00993
:1014A000C0F7E10CF11E431F561FC91FD01D7EF46B
:1014B000703311F48A95E6CFE894015030F0080FAC
:1014C0000AF40027021708F4202F2395022F7A33FD
:1014D00028F079E37D932A95E9F710C07D932A954A
:1014E00089F6069497956795379517951794E1189F
:1014F000F10A430B560BC90BD00998F023957E9146
:1015000073957A3308F070E37C932013B8F77E91DB
:1015100070617D9330F0839571E37D9370E32A953C
:10152000E1F71124EF90FF900F911F91CF91DF9180
:10153000992787FD909508952F923F924F925F9241
:101540006F927F928F929F92AF92BF92CF92DF92D3
:10155000EF92FF920F931F93CF93DF93CDB7DEB738
:10156000CA1BDB0B0FB6F894DEBF0FBECDBF0994CC
:101570002A88398848885F846E847D848C849B8423
:10158000AA84B984C884DF80EE80FD800C811B8131
:10159000AA81B981CE0FD11D0FB6F894DEBF0FBE60
:0A15A000CDBFED010895F894FFCFD0
:0215AA005300EC
:00000001FF
